{
  "_format": "hh-sol-artifact-1",
  "contractName": "MultiSignWalletFactory",
  "sourceName": "contracts/MultiSig.sol",
  "abi": [
    {
      "anonymous": false,
      "inputs": [
        {
          "indexed": true,
          "internalType": "address",
          "name": "_owner",
          "type": "address"
        },
        {
          "indexed": false,
          "internalType": "address",
          "name": "_address",
          "type": "address"
        }
      ],
      "name": "MultiSignWalletOwner",
      "type": "event"
    },
    {
      "inputs": [
        {
          "internalType": "address[]",
          "name": "_owners",
          "type": "address[]"
        },
        {
          "internalType": "uint256",
          "name": "_confirmationsRequired",
          "type": "uint256"
        }
      ],
      "name": "create",
      "outputs": [],
      "stateMutability": "payable",
      "type": "function"
    }
  ],
  "bytecode": "0x608060405234801561001057600080fd5b50612854806100206000396000f3fe608060405260043610620000205760003560e01c8063f8f738081462000025575b600080fd5b6200004360048036038101906200003d91906200026f565b62000045565b005b60008282604051620000579062000191565b620000649291906200039d565b604051809103906000f08015801562000081573d6000803e3d6000fd5b5090506000341115620000d7578073ffffffffffffffffffffffffffffffffffffffff166108fc349081150290604051600060405180830381858888f19350505050158015620000d5573d6000803e3d6000fd5b505b60005b83518110156200018b578381815181106200011e577f4e487b7100000000000000000000000000000000000000000000000000000000600052603260045260246000fd5b602002602001015173ffffffffffffffffffffffffffffffffffffffff167fd4e8b1e02620d422fed00e7ee0990eefbbdda31a6106d915a5a5885e28e1b105836040516200016d919062000380565b60405180910390a280806200018290620004d6565b915050620000da565b50505050565b61225780620005c883390190565b6000620001b6620001b084620003fa565b620003d1565b90508083825260208201905082856020860282011115620001d657600080fd5b60005b858110156200020a5781620001ef888262000214565b845260208401935060208301925050600181019050620001d9565b5050509392505050565b600081359050620002258162000593565b92915050565b600082601f8301126200023d57600080fd5b81356200024f8482602086016200019f565b91505092915050565b6000813590506200026981620005ad565b92915050565b600080604083850312156200028357600080fd5b600083013567ffffffffffffffff8111156200029e57600080fd5b620002ac858286016200022b565b9250506020620002bf8582860162000258565b9150509250929050565b6000620002d78383620002e3565b60208301905092915050565b620002ee8162000462565b82525050565b620002ff8162000462565b82525050565b6000620003128262000439565b6200031e818562000451565b93506200032b8362000429565b8060005b8381101562000362578151620003468882620002c9565b9750620003538362000444565b9250506001810190506200032f565b5085935050505092915050565b6200037a8162000496565b82525050565b6000602082019050620003976000830184620002f4565b92915050565b60006040820190508181036000830152620003b9818562000305565b9050620003ca60208301846200036f565b9392505050565b6000620003dd620003f0565b9050620003eb8282620004a0565b919050565b6000604051905090565b600067ffffffffffffffff82111562000418576200041762000553565b5b602082029050602081019050919050565b6000819050602082019050919050565b600081519050919050565b6000602082019050919050565b600082825260208201905092915050565b60006200046f8262000476565b9050919050565b600073ffffffffffffffffffffffffffffffffffffffff82169050919050565b6000819050919050565b620004ab8262000582565b810181811067ffffffffffffffff82111715620004cd57620004cc62000553565b5b80604052505050565b6000620004e38262000496565b91507fffffffffffffffffffffffffffffffffffffffffffffffffffffffffffffffff82141562000519576200051862000524565b5b600182019050919050565b7f4e487b7100000000000000000000000000000000000000000000000000000000600052601160045260246000fd5b7f4e487b7100000000000000000000000000000000000000000000000000000000600052604160045260246000fd5b6000601f19601f8301169050919050565b6200059e8162000462565b8114620005aa57600080fd5b50565b620005b88162000496565b8114620005c457600080fd5b5056fe60a06040523480156200001157600080fd5b506040516200225738038062002257833981810160405281019062000037919062000335565b60008251116200007e576040517f08c379a00000000000000000000000000000000000000000000000000000000081526004016200007590620003dd565b60405180910390fd5b60008111801562000090575081518111155b620000d2576040517f08c379a0000000000000000000000000000000000000000000000000000000008152600401620000c990620003ff565b60405180910390fd5b60005b82518110156200018d5760018060008584815181106200011e577f4e487b7100000000000000000000000000000000000000000000000000000000600052603260045260246000fd5b602002602001015173ffffffffffffffffffffffffffffffffffffffff1673ffffffffffffffffffffffffffffffffffffffff16815260200190815260200160002060006101000a81548160ff02191690831515021790555080806200018490620004fe565b915050620000d5565b508160009080519060200190620001a6929190620001b7565b508060808181525050505062000641565b82805482825590600052602060002090810192821562000233579160200282015b82811115620002325782518260006101000a81548173ffffffffffffffffffffffffffffffffffffffff021916908373ffffffffffffffffffffffffffffffffffffffff16021790555091602001919060010190620001d8565b5b50905062000242919062000246565b5090565b5b808211156200026157600081600090555060010162000247565b5090565b60006200027c62000276846200044a565b62000421565b905080838252602082019050828560208602820111156200029c57600080fd5b60005b85811015620002d05781620002b58882620002da565b8452602084019350602083019250506001810190506200029f565b5050509392505050565b600081519050620002eb816200060d565b92915050565b600082601f8301126200030357600080fd5b81516200031584826020860162000265565b91505092915050565b6000815190506200032f8162000627565b92915050565b600080604083850312156200034957600080fd5b600083015167ffffffffffffffff8111156200036457600080fd5b6200037285828601620002f1565b925050602062000385858286016200031e565b9150509250929050565b60006200039e60118362000479565b9150620003ab82620005bb565b602082019050919050565b6000620003c560138362000479565b9150620003d282620005e4565b602082019050919050565b60006020820190508181036000830152620003f8816200038f565b9050919050565b600060208201905081810360008301526200041a81620003b6565b9050919050565b60006200042d62000440565b90506200043b8282620004c8565b919050565b6000604051905090565b600067ffffffffffffffff8211156200046857620004676200057b565b5b602082029050602081019050919050565b600082825260208201905092915050565b600062000497826200049e565b9050919050565b600073ffffffffffffffffffffffffffffffffffffffff82169050919050565b6000819050919050565b620004d382620005aa565b810181811067ffffffffffffffff82111715620004f557620004f46200057b565b5b80604052505050565b60006200050b82620004be565b91507fffffffffffffffffffffffffffffffffffffffffffffffffffffffffffffffff8214156200054157620005406200054c565b5b600182019050919050565b7f4e487b7100000000000000000000000000000000000000000000000000000000600052601160045260246000fd5b7f4e487b7100000000000000000000000000000000000000000000000000000000600052604160045260246000fd5b6000601f19601f8301169050919050565b7f4e6f7420656e6f756768206f776e657273000000000000000000000000000000600082015250565b7f57726f6e6720636f6e6669726d6174696f6e7300000000000000000000000000600082015250565b62000618816200048a565b81146200062457600080fd5b50565b6200063281620004be565b81146200063e57600080fd5b50565b608051611bf36200066460003960008181610b9c015261103e0152611bf36000f3fe60806040526004361061008a5760003560e01c80639ace38c2116100595780639ace38c214610164578063a0e67e2b146101a5578063ae30dc3f146101d0578063c486ea14146101f9578063e8b2c2431461022257610091565b8063057c853e146100965780630c22acbd146100d35780632f54bf6e146100fc57806383920e901461013957610091565b3661009157005b600080fd5b3480156100a257600080fd5b506100bd60048036038101906100b89190611235565b61024d565b6040516100ca91906116b0565b60405180910390f35b3480156100df57600080fd5b506100fa60048036038101906100f5919061120c565b61027c565b005b34801561010857600080fd5b50610123600480360381019061011e9190611177565b61059e565b60405161013091906116b0565b60405180910390f35b34801561014557600080fd5b5061014e6105be565b60405161015b919061168e565b60405180910390f35b34801561017057600080fd5b5061018b6004803603810190610186919061120c565b610734565b60405161019c959493929190611612565b60405180910390f35b3480156101b157600080fd5b506101ba61082f565b6040516101c7919061166c565b60405180910390f35b3480156101dc57600080fd5b506101f760048036038101906101f2919061120c565b6108bd565b005b34801561020557600080fd5b50610220600480360381019061021b91906111a0565b610d9a565b005b34801561022e57600080fd5b5061023761103c565b60405161024491906117cb565b60405180910390f35b60036020528160005260406000206020528060005260406000206000915091509054906101000a900460ff1681565b600160003373ffffffffffffffffffffffffffffffffffffffff1673ffffffffffffffffffffffffffffffffffffffff16815260200190815260200160002060009054906101000a900460ff16610308576040517f08c379a00000000000000000000000000000000000000000000000000000000081526004016102ff906116cb565b60405180910390fd5b80806002805490501015610351576040517f08c379a00000000000000000000000000000000000000000000000000000000081526004016103489061178b565b60405180910390fd5b816002818154811061038c577f4e487b7100000000000000000000000000000000000000000000000000000000600052603260045260246000fd5b906000526020600020906005020160030160009054906101000a900460ff16156103eb576040517f08c379a00000000000000000000000000000000000000000000000000000000081526004016103e29061174b565b60405180910390fd5b6003600084815260200190815260200160002060003373ffffffffffffffffffffffffffffffffffffffff1673ffffffffffffffffffffffffffffffffffffffff16815260200190815260200160002060009054906101000a900460ff1615610489576040517f08c379a0000000000000000000000000000000000000000000000000000000008152600401610480906117ab565b60405180910390fd5b6001600284815481106104c5577f4e487b7100000000000000000000000000000000000000000000000000000000600052603260045260246000fd5b906000526020600020906005020160040160008282546104e591906118a1565b9250508190555060016003600085815260200190815260200160002060003373ffffffffffffffffffffffffffffffffffffffff1673ffffffffffffffffffffffffffffffffffffffff16815260200190815260200160002060006101000a81548160ff0219169083151502179055503373ffffffffffffffffffffffffffffffffffffffff16837f15c2f311c9e0f53b50388279894aeff029a3457884a6601e924fca879e12adcc60405160405180910390a3505050565b60016020528060005260406000206000915054906101000a900460ff1681565b60606002805480602002602001604051908101604052809291908181526020016000905b8282101561072b57838290600052602060002090600502016040518060a00160405290816000820160009054906101000a900473ffffffffffffffffffffffffffffffffffffffff1673ffffffffffffffffffffffffffffffffffffffff1673ffffffffffffffffffffffffffffffffffffffff16815260200160018201548152602001600282018054610675906119a6565b80601f01602080910402602001604051908101604052809291908181526020018280546106a1906119a6565b80156106ee5780601f106106c3576101008083540402835291602001916106ee565b820191906000526020600020905b8154815290600101906020018083116106d157829003601f168201915b505050505081526020016003820160009054906101000a900460ff16151515158152602001600482015481525050815260200190600101906105e2565b50505050905090565b6002818154811061074457600080fd5b90600052602060002090600502016000915090508060000160009054906101000a900473ffffffffffffffffffffffffffffffffffffffff1690806001015490806002018054610793906119a6565b80601f01602080910402602001604051908101604052809291908181526020018280546107bf906119a6565b801561080c5780601f106107e15761010080835404028352916020019161080c565b820191906000526020600020905b8154815290600101906020018083116107ef57829003601f168201915b5050505050908060030160009054906101000a900460ff16908060040154905085565b606060008054806020026020016040519081016040528092919081815260200182805480156108b357602002820191906000526020600020905b8160009054906101000a900473ffffffffffffffffffffffffffffffffffffffff1673ffffffffffffffffffffffffffffffffffffffff1681526020019060010190808311610869575b5050505050905090565b600160003373ffffffffffffffffffffffffffffffffffffffff1673ffffffffffffffffffffffffffffffffffffffff16815260200190815260200160002060009054906101000a900460ff16610949576040517f08c379a0000000000000000000000000000000000000000000000000000000008152600401610940906116cb565b60405180910390fd5b80806002805490501015610992576040517f08c379a00000000000000000000000000000000000000000000000000000000081526004016109899061178b565b60405180910390fd5b81600281815481106109cd577f4e487b7100000000000000000000000000000000000000000000000000000000600052603260045260246000fd5b906000526020600020906005020160030160009054906101000a900460ff1615610a2c576040517f08c379a0000000000000000000000000000000000000000000000000000000008152600401610a239061174b565b60405180910390fd5b600060028481548110610a68577f4e487b7100000000000000000000000000000000000000000000000000000000600052603260045260246000fd5b90600052602060002090600502016040518060a00160405290816000820160009054906101000a900473ffffffffffffffffffffffffffffffffffffffff1673ffffffffffffffffffffffffffffffffffffffff1673ffffffffffffffffffffffffffffffffffffffff16815260200160018201548152602001600282018054610af1906119a6565b80601f0160208091040260200160405190810160405280929190818152602001828054610b1d906119a6565b8015610b6a5780601f10610b3f57610100808354040283529160200191610b6a565b820191906000526020600020905b815481529060010190602001808311610b4d57829003601f168201915b505050505081526020016003820160009054906101000a900460ff1615151515815260200160048201548152505090507f000000000000000000000000000000000000000000000000000000000000000081608001511015610c01576040517f08c379a0000000000000000000000000000000000000000000000000000000008152600401610bf89061172b565b60405180910390fd5b8060200151471015610c48576040517f08c379a0000000000000000000000000000000000000000000000000000000008152600401610c3f906116eb565b60405180910390fd5b6000816000015173ffffffffffffffffffffffffffffffffffffffff1682602001518360400151604051610c7c91906115fb565b60006040518083038185875af1925050503d8060008114610cb9576040519150601f19603f3d011682016040523d82523d6000602084013e610cbe565b606091505b5050905080610d02576040517f08c379a0000000000000000000000000000000000000000000000000000000008152600401610cf99061176b565b60405180910390fd5b600160028681548110610d3e577f4e487b7100000000000000000000000000000000000000000000000000000000600052603260045260246000fd5b906000526020600020906005020160030160006101000a81548160ff021916908315150217905550847f15ed165a284872ea7017f03df402a0cadfbfab588320ffaf83f160c2f82781c760405160405180910390a25050505050565b600160003373ffffffffffffffffffffffffffffffffffffffff1673ffffffffffffffffffffffffffffffffffffffff16815260200190815260200160002060009054906101000a900460ff16610e26576040517f08c379a0000000000000000000000000000000000000000000000000000000008152600401610e1d906116cb565b60405180910390fd5b600073ffffffffffffffffffffffffffffffffffffffff168473ffffffffffffffffffffffffffffffffffffffff161415610e96576040517f08c379a0000000000000000000000000000000000000000000000000000000008152600401610e8d9061170b565b60405180910390fd5b60026040518060a001604052808673ffffffffffffffffffffffffffffffffffffffff16815260200185815260200184848080601f016020809104026020016040519081016040528093929190818152602001838380828437600081840152601f19601f8201169050808301925050505050505081526020016000151581526020016000815250908060018154018082558091505060019003906000526020600020906005020160009091909190915060008201518160000160006101000a81548173ffffffffffffffffffffffffffffffffffffffff021916908373ffffffffffffffffffffffffffffffffffffffff160217905550602082015181600101556040820151816002019080519060200190610fb3929190611060565b5060608201518160030160006101000a81548160ff021916908315150217905550608082015181600401555050828473ffffffffffffffffffffffffffffffffffffffff16600160028054905061100a91906118f7565b7f4742bd57e896986e8e3e2cdb6f29757a5773177893f9d162f2db35e2cc6d6d2e60405160405180910390a450505050565b7f000000000000000000000000000000000000000000000000000000000000000081565b82805461106c906119a6565b90600052602060002090601f01602090048101928261108e57600085556110d5565b82601f106110a757805160ff19168380011785556110d5565b828001600101855582156110d5579182015b828111156110d45782518255916020019190600101906110b9565b5b5090506110e291906110e6565b5090565b5b808211156110ff5760008160009055506001016110e7565b5090565b60008135905061111281611b8f565b92915050565b60008083601f84011261112a57600080fd5b8235905067ffffffffffffffff81111561114357600080fd5b60208301915083600182028301111561115b57600080fd5b9250929050565b60008135905061117181611ba6565b92915050565b60006020828403121561118957600080fd5b600061119784828501611103565b91505092915050565b600080600080606085870312156111b657600080fd5b60006111c487828801611103565b94505060206111d587828801611162565b935050604085013567ffffffffffffffff8111156111f257600080fd5b6111fe87828801611118565b925092505092959194509250565b60006020828403121561121e57600080fd5b600061122c84828501611162565b91505092915050565b6000806040838503121561124857600080fd5b600061125685828601611162565b925050602061126785828601611103565b9150509250929050565b600061127d838361129d565b60208301905092915050565b60006112958383611567565b905092915050565b6112a68161192b565b82525050565b6112b58161192b565b82525050565b60006112c682611806565b6112d08185611841565b93506112db836117e6565b8060005b8381101561130c5781516112f38882611271565b97506112fe83611827565b9250506001810190506112df565b5085935050505092915050565b600061132482611811565b61132e8185611852565b935083602082028501611340856117f6565b8060005b8581101561137c578484038952815161135d8582611289565b945061136883611834565b925060208a01995050600181019050611344565b50829750879550505050505092915050565b6113978161193d565b82525050565b6113a68161193d565b82525050565b60006113b78261181c565b6113c18185611863565b93506113d1818560208601611973565b6113da81611a36565b840191505092915050565b60006113f08261181c565b6113fa8185611874565b935061140a818560208601611973565b61141381611a36565b840191505092915050565b60006114298261181c565b6114338185611885565b9350611443818560208601611973565b80840191505092915050565b600061145c600c83611890565b915061146782611a47565b602082019050919050565b600061147f601283611890565b915061148a82611a70565b602082019050919050565b60006114a2601083611890565b91506114ad82611a99565b602082019050919050565b60006114c5601883611890565b91506114d082611ac2565b602082019050919050565b60006114e8601d83611890565b91506114f382611aeb565b602082019050919050565b600061150b601283611890565b915061151682611b14565b602082019050919050565b600061152e601883611890565b915061153982611b3d565b602082019050919050565b6000611551601f83611890565b915061155c82611b66565b602082019050919050565b600060a08301600083015161157f600086018261129d565b50602083015161159260208601826115dd565b50604083015184820360408601526115aa82826113ac565b91505060608301516115bf606086018261138e565b5060808301516115d260808601826115dd565b508091505092915050565b6115e681611969565b82525050565b6115f581611969565b82525050565b6000611607828461141e565b915081905092915050565b600060a08201905061162760008301886112ac565b61163460208301876115ec565b818103604083015261164681866113e5565b9050611655606083018561139d565b61166260808301846115ec565b9695505050505050565b6000602082019050818103600083015261168681846112bb565b905092915050565b600060208201905081810360008301526116a88184611319565b905092915050565b60006020820190506116c5600083018461139d565b92915050565b600060208201905081810360008301526116e48161144f565b9050919050565b6000602082019050818103600083015261170481611472565b9050919050565b6000602082019050818103600083015261172481611495565b9050919050565b60006020820190508181036000830152611744816114b8565b9050919050565b60006020820190508181036000830152611764816114db565b9050919050565b60006020820190508181036000830152611784816114fe565b9050919050565b600060208201905081810360008301526117a481611521565b9050919050565b600060208201905081810360008301526117c481611544565b9050919050565b60006020820190506117e060008301846115ec565b92915050565b6000819050602082019050919050565b6000819050602082019050919050565b600081519050919050565b600081519050919050565b600081519050919050565b6000602082019050919050565b6000602082019050919050565b600082825260208201905092915050565b600082825260208201905092915050565b600082825260208201905092915050565b600082825260208201905092915050565b600081905092915050565b600082825260208201905092915050565b60006118ac82611969565b91506118b783611969565b9250827fffffffffffffffffffffffffffffffffffffffffffffffffffffffffffffffff038211156118ec576118eb6119d8565b5b828201905092915050565b600061190282611969565b915061190d83611969565b9250828210156119205761191f6119d8565b5b828203905092915050565b600061193682611949565b9050919050565b60008115159050919050565b600073ffffffffffffffffffffffffffffffffffffffff82169050919050565b6000819050919050565b60005b83811015611991578082015181840152602081019050611976565b838111156119a0576000848401525b50505050565b600060028204905060018216806119be57607f821691505b602082108114156119d2576119d1611a07565b5b50919050565b7f4e487b7100000000000000000000000000000000000000000000000000000000600052601160045260246000fd5b7f4e487b7100000000000000000000000000000000000000000000000000000000600052602260045260246000fd5b6000601f19601f8301169050919050565b7f4e6f7420616e206f776e65720000000000000000000000000000000000000000600082015250565b7f4e6f7420656e6f7567682062616c616e63650000000000000000000000000000600082015250565b7f57726f6e6720746f206164647265737300000000000000000000000000000000600082015250565b7f4e6f7420656e6f75676820636f6e6669726d6174696f6e730000000000000000600082015250565b7f5472616e73616374696f6e20616c726561647920636f6e6669726d6564000000600082015250565b7f5472616e73616374696f6e206661696c65640000000000000000000000000000600082015250565b7f5472616e73616374696f6e20646f65736e742065786973740000000000000000600082015250565b7f4f776e657220616c726561647920636f6e6669726d6564207468697320547800600082015250565b611b988161192b565b8114611ba357600080fd5b50565b611baf81611969565b8114611bba57600080fd5b5056fea26469706673582212201e29a6329027b6e52e089ded65c492bec59418bcc31edf48b2e4346af81917cf64736f6c63430008040033a2646970667358221220336f50632f96588b2477921f7f208cbc805e37085291cd23bbe9261bbbb247a764736f6c63430008040033",
  "linkReferences": {},
  "deployedLinkReferences": {}
}